{
  "_format": "hh-sol-artifact-1",
  "contractName": "NumberToAddress",
  "sourceName": "contracts/NumberToAddress.sol",
  "abi": [
    {
      "anonymous": false,
      "inputs": [
        {
          "indexed": false,
          "internalType": "address",
          "name": "recipient",
          "type": "address"
        },
        {
          "indexed": false,
          "internalType": "uint256",
          "name": "amount",
          "type": "uint256"
        }
      ],
      "name": "AddNumber",
      "type": "event"
    },
    {
      "inputs": [],
      "name": "getTotalAccounts",
      "outputs": [
        {
          "internalType": "uint256",
          "name": "",
          "type": "uint256"
        }
      ],
      "stateMutability": "view",
      "type": "function"
    },
    {
      "inputs": [],
      "name": "getTotalNumber",
      "outputs": [
        {
          "internalType": "uint256",
          "name": "",
          "type": "uint256"
        }
      ],
      "stateMutability": "view",
      "type": "function"
    },
    {
      "inputs": [
        {
          "internalType": "uint256",
          "name": "_amount",
          "type": "uint256"
        }
      ],
      "name": "setAmount",
      "outputs": [],
      "stateMutability": "nonpayable",
      "type": "function"
    }
  ],
  "bytecode": "0x608060405234801561001057600080fd5b506104a8806100206000396000f3fe608060405234801561001057600080fd5b50600436106100415760003560e01c8063271f88b414610046578063d026b7f714610062578063da6841aa14610080575b600080fd5b610060600480360381019061005b91906102d7565b61009e565b005b61006a6101d2565b6040516100779190610313565b60405180910390f35b61008861028f565b6040516100959190610313565b60405180910390f35b6001339080600181540180825580915050600190039060005260206000200160009091909190916101000a81548173ffffffffffffffffffffffffffffffffffffffff021916908373ffffffffffffffffffffffffffffffffffffffff16021790555080600260003373ffffffffffffffffffffffffffffffffffffffff1673ffffffffffffffffffffffffffffffffffffffff1681526020019081526020016000206000828254610150919061035d565b925050819055507f35ed35e0cff51ad4ae92ebe3cbd65dd24ac7a5b9b74d1952bd53bd62519f9e5933600260003373ffffffffffffffffffffffffffffffffffffffff1673ffffffffffffffffffffffffffffffffffffffff168152602001908152602001600020546040516101c79291906103d2565b60405180910390a150565b6000806000905060005b600180549050811015610287576002600060018381548110610201576102006103fb565b5b9060005260206000200160009054906101000a900473ffffffffffffffffffffffffffffffffffffffff1673ffffffffffffffffffffffffffffffffffffffff1673ffffffffffffffffffffffffffffffffffffffff1681526020019081526020016000205482610272919061035d565b9150808061027f9061042a565b9150506101dc565b508091505090565b6000600180549050905090565b600080fd5b6000819050919050565b6102b4816102a1565b81146102bf57600080fd5b50565b6000813590506102d1816102ab565b92915050565b6000602082840312156102ed576102ec61029c565b5b60006102fb848285016102c2565b91505092915050565b61030d816102a1565b82525050565b60006020820190506103286000830184610304565b92915050565b7f4e487b7100000000000000000000000000000000000000000000000000000000600052601160045260246000fd5b6000610368826102a1565b9150610373836102a1565b925082820190508082111561038b5761038a61032e565b5b92915050565b600073ffffffffffffffffffffffffffffffffffffffff82169050919050565b60006103bc82610391565b9050919050565b6103cc816103b1565b82525050565b60006040820190506103e760008301856103c3565b6103f46020830184610304565b9392505050565b7f4e487b7100000000000000000000000000000000000000000000000000000000600052603260045260246000fd5b6000610435826102a1565b91507fffffffffffffffffffffffffffffffffffffffffffffffffffffffffffffffff82036104675761046661032e565b5b60018201905091905056fea26469706673582212201ccedd4850f2fe9de201b15686a5fc3f63ad729af0acbf3a75806ae19c7cbd0c64736f6c63430008110033",
  "linkReferences": {},
  "deployedLinkReferences": {}
}